{
  "contractName": "SimpleWallet",
  "abi": [
    {
      "inputs": [],
      "payable": false,
      "stateMutability": "nonpayable",
      "type": "constructor",
      "signature": "constructor"
    },
    {
      "payable": true,
      "stateMutability": "payable",
      "type": "fallback"
    },
    {
      "anonymous": false,
      "inputs": [
        {
          "indexed": false,
          "name": "_sender",
          "type": "address"
        },
        {
          "indexed": false,
          "name": "amount",
          "type": "uint256"
        }
      ],
      "name": "Deposit",
      "type": "event",
      "signature": "0xe1fffcc4923d04b559f4d29a8bfc6cda04eb5b0d3c460751c2402c5c5cc9109c"
    },
    {
      "anonymous": false,
      "inputs": [
        {
          "indexed": false,
          "name": "_sender",
          "type": "address"
        },
        {
          "indexed": false,
          "name": "amount",
          "type": "uint256"
        },
        {
          "indexed": false,
          "name": "_beneficiary",
          "type": "address"
        }
      ],
      "name": "Withdrawl",
      "type": "event",
      "signature": "0x2ce435329ed2714bb4f4b7d0fe33307418dcf239c8c61d63a6b2fe052f7491c2"
    },
    {
      "constant": false,
      "inputs": [
        {
          "name": "amount",
          "type": "uint256"
        },
        {
          "name": "receiver",
          "type": "address"
        }
      ],
      "name": "sendFunds",
      "outputs": [],
      "payable": false,
      "stateMutability": "nonpayable",
      "type": "function",
      "signature": "0xb2686774"
    },
    {
      "constant": true,
      "inputs": [
        {
          "name": "_address",
          "type": "address"
        }
      ],
      "name": "getAmountOfWithdrawls",
      "outputs": [
        {
          "name": "",
          "type": "uint256"
        }
      ],
      "payable": false,
      "stateMutability": "view",
      "type": "function",
      "signature": "0x5ee3610c"
    },
    {
      "constant": true,
      "inputs": [
        {
          "name": "_address",
          "type": "address"
        },
        {
          "name": "index",
          "type": "uint256"
        }
      ],
      "name": "getWithdrawlForAddress",
      "outputs": [
        {
          "name": "",
          "type": "address"
        },
        {
          "name": "",
          "type": "uint256"
        }
      ],
      "payable": false,
      "stateMutability": "view",
      "type": "function",
      "signature": "0x7bac318b"
    },
    {
      "constant": false,
      "inputs": [
        {
          "name": "_address",
          "type": "address"
        }
      ],
      "name": "allowAddressToSendMoney",
      "outputs": [],
      "payable": false,
      "stateMutability": "nonpayable",
      "type": "function",
      "signature": "0xc4004648"
    },
    {
      "constant": false,
      "inputs": [
        {
          "name": "_address",
          "type": "address"
        }
      ],
      "name": "disallowAddressToSendMoney",
      "outputs": [],
      "payable": false,
      "stateMutability": "nonpayable",
      "type": "function",
      "signature": "0xe481553e"
    },
    {
      "constant": true,
      "inputs": [
        {
          "name": "_address",
          "type": "address"
        }
      ],
      "name": "isAllowedToSend",
      "outputs": [
        {
          "name": "",
          "type": "bool"
        }
      ],
      "payable": false,
      "stateMutability": "view",
      "type": "function",
      "signature": "0x0bc605ad"
    },
    {
      "constant": false,
      "inputs": [],
      "name": "killWallet",
      "outputs": [],
      "payable": false,
      "stateMutability": "nonpayable",
      "type": "function",
      "signature": "0xb67ba1b5"
    }
  ],
  "bytecode": "0x608060405234801561001057600080fd5b50336000806101000a81548173ffffffffffffffffffffffffffffffffffffffff021916908373ffffffffffffffffffffffffffffffffffffffff160217905550610a1b806100606000396000f3fe60806040526004361061007d576000357c0100000000000000000000000000000000000000000000000000000000900480630bc605ad146100fe5780635ee3610c146101675780637bac318b146101cc578063b26867741461026e578063b67ba1b5146102c9578063c4004648146102e0578063e481553e14610331575b61008633610382565b151561009157600080fd5b7fe1fffcc4923d04b559f4d29a8bfc6cda04eb5b0d3c460751c2402c5c5cc9109c3334604051808373ffffffffffffffffffffffffffffffffffffffff1673ffffffffffffffffffffffffffffffffffffffff1681526020018281526020019250505060405180910390a1005b34801561010a57600080fd5b5061014d6004803603602081101561012157600080fd5b81019080803573ffffffffffffffffffffffffffffffffffffffff169060200190929190505050610382565b604051808215151515815260200191505060405180910390f35b34801561017357600080fd5b506101b66004803603602081101561018a57600080fd5b81019080803573ffffffffffffffffffffffffffffffffffffffff169060200190929190505050610432565b6040518082815260200191505060405180910390f35b3480156101d857600080fd5b50610225600480360360408110156101ef57600080fd5b81019080803573ffffffffffffffffffffffffffffffffffffffff1690602001909291908035906020019092919050505061047e565b604051808373ffffffffffffffffffffffffffffffffffffffff1673ffffffffffffffffffffffffffffffffffffffff1681526020018281526020019250505060405180910390f35b34801561027a57600080fd5b506102c76004803603604081101561029157600080fd5b8101908080359060200190929190803573ffffffffffffffffffffffffffffffffffffffff16906020019092919050505061055a565b005b3480156102d557600080fd5b506102de610844565b005b3480156102ec57600080fd5b5061032f6004803603602081101561030357600080fd5b81019080803573ffffffffffffffffffffffffffffffffffffffff1690602001909291905050506108d9565b005b34801561033d57600080fd5b506103806004803603602081101561035457600080fd5b81019080803573ffffffffffffffffffffffffffffffffffffffff169060200190929190505050610991565b005b6000600160008373ffffffffffffffffffffffffffffffffffffffff1673ffffffffffffffffffffffffffffffffffffffff16815260200190815260200160002060000160009054906101000a900460ff168061042b57506000809054906101000a900473ffffffffffffffffffffffffffffffffffffffff1673ffffffffffffffffffffffffffffffffffffffff168273ffffffffffffffffffffffffffffffffffffffff16145b9050919050565b6000600160008373ffffffffffffffffffffffffffffffffffffffff1673ffffffffffffffffffffffffffffffffffffffff168152602001908152602001600020600101549050919050565b600080600160008573ffffffffffffffffffffffffffffffffffffffff1673ffffffffffffffffffffffffffffffffffffffff168152602001908152602001600020600201600084815260200190815260200160002060000160009054906101000a900473ffffffffffffffffffffffffffffffffffffffff16600160008673ffffffffffffffffffffffffffffffffffffffff1673ffffffffffffffffffffffffffffffffffffffff168152602001908152602001600020600201600085815260200190815260200160002060010154915091509250929050565b61056333610382565b151561056e57600080fd5b813073ffffffffffffffffffffffffffffffffffffffff16311015151561059457600080fd5b8073ffffffffffffffffffffffffffffffffffffffff166108fc839081150290604051600060405180830381858888f193505050501580156105da573d6000803e3d6000fd5b507f2ce435329ed2714bb4f4b7d0fe33307418dcf239c8c61d63a6b2fe052f7491c2338383604051808473ffffffffffffffffffffffffffffffffffffffff1673ffffffffffffffffffffffffffffffffffffffff1681526020018381526020018273ffffffffffffffffffffffffffffffffffffffff1673ffffffffffffffffffffffffffffffffffffffff168152602001935050505060405180910390a1600160003373ffffffffffffffffffffffffffffffffffffffff1673ffffffffffffffffffffffffffffffffffffffff1681526020019081526020016000206001016000815480929190600101919050555080600160003373ffffffffffffffffffffffffffffffffffffffff1673ffffffffffffffffffffffffffffffffffffffff1681526020019081526020016000206002016000600160003373ffffffffffffffffffffffffffffffffffffffff1673ffffffffffffffffffffffffffffffffffffffff16815260200190815260200160002060010154815260200190815260200160002060000160006101000a81548173ffffffffffffffffffffffffffffffffffffffff021916908373ffffffffffffffffffffffffffffffffffffffff16021790555081600160003373ffffffffffffffffffffffffffffffffffffffff1673ffffffffffffffffffffffffffffffffffffffff1681526020019081526020016000206002016000600160003373ffffffffffffffffffffffffffffffffffffffff1673ffffffffffffffffffffffffffffffffffffffff168152602001908152602001600020600101548152602001908152602001600020600101819055505050565b6000809054906101000a900473ffffffffffffffffffffffffffffffffffffffff1673ffffffffffffffffffffffffffffffffffffffff163373ffffffffffffffffffffffffffffffffffffffff1614151561089f57600080fd5b6000809054906101000a900473ffffffffffffffffffffffffffffffffffffffff1673ffffffffffffffffffffffffffffffffffffffff16ff5b6000809054906101000a900473ffffffffffffffffffffffffffffffffffffffff1673ffffffffffffffffffffffffffffffffffffffff163373ffffffffffffffffffffffffffffffffffffffff1614151561093457600080fd5b60018060008373ffffffffffffffffffffffffffffffffffffffff1673ffffffffffffffffffffffffffffffffffffffff16815260200190815260200160002060000160006101000a81548160ff02191690831515021790555050565b6000600160008373ffffffffffffffffffffffffffffffffffffffff1673ffffffffffffffffffffffffffffffffffffffff16815260200190815260200160002060000160006101000a81548160ff0219169083151502179055505056fea165627a7a723058206c42781e2de1103ddd362dbc6bae2052743781fc6a4bbbacc2ba3e0a8f9331b90029",
  "source": "pragma solidity >=0.4.24 <0.6.0;\r\ncontract SimpleWallet {\r\n\r\n    address payable owner;\r\n\r\n    struct WithdrawlStruct {\r\n        address to;\r\n        uint amount;\r\n    }\r\n\r\n    struct Senders {\r\n        bool allowed;\r\n        uint amount_sends;\r\n        mapping(uint => WithdrawlStruct) withdrawls;\r\n    }\r\n\r\n    mapping(address => Senders) isAllowedToSendFundsMapping;\r\n\r\n\r\n    event Deposit(address _sender, uint amount);\r\n    event Withdrawl(address _sender, uint amount, address _beneficiary);\r\n\r\n    constructor() public {\r\n        owner = msg.sender;\r\n    }\r\n\r\n    modifier onlyOwner() {\r\n        require(msg.sender == owner);\r\n        _;\r\n    }\r\n\r\n    function() payable external {\r\n        require(isAllowedToSend(msg.sender));\r\n        emit Deposit(msg.sender, msg.value);\r\n    }\r\n\r\n    function sendFunds(uint amount, address payable receiver) public {\r\n        require(isAllowedToSend(msg.sender));\r\n        require(address(this).balance >= amount);\r\n        receiver.transfer(amount);\r\n        emit Withdrawl(msg.sender, amount, receiver);\r\n        isAllowedToSendFundsMapping[msg.sender].amount_sends++;\r\n        isAllowedToSendFundsMapping[msg.sender].withdrawls[isAllowedToSendFundsMapping[msg.sender].amount_sends].to = receiver;\r\n        isAllowedToSendFundsMapping[msg.sender].withdrawls[isAllowedToSendFundsMapping[msg.sender].amount_sends].amount = amount;\r\n      }\r\n\r\n      function getAmountOfWithdrawls(address _address) public view returns (uint) {\r\n        return isAllowedToSendFundsMapping[_address].amount_sends;\r\n      }\r\n\r\n      function getWithdrawlForAddress(address _address, uint index) public view returns (address, uint) {\r\n        return (isAllowedToSendFundsMapping[_address].withdrawls[index].to, isAllowedToSendFundsMapping[_address].withdrawls[index].amount);\r\n      }\r\n\r\n      function allowAddressToSendMoney(address _address) public onlyOwner {\r\n          isAllowedToSendFundsMapping[_address].allowed = true;\r\n      }\r\n\r\n      function disallowAddressToSendMoney(address _address) public {\r\n          isAllowedToSendFundsMapping[_address].allowed = false;\r\n      }\r\n\r\n      function isAllowedToSend(address _address) public view returns (bool) {\r\n        return isAllowedToSendFundsMapping[_address].allowed || _address == owner;\r\n      }\r\n\r\n      function killWallet() public onlyOwner {\r\n          selfdestruct(owner);\r\n      }\r\n\r\n\r\n}\r\n",
  "sourcePath": "A:/temp/now/contracts/SimpleWallet.sol",
  "compiler": {
    "name": "solc",
    "version": "0.5.1+commit.c8a2cb62.Emscripten.clang"
  },
  "schemaVersion": "3.0.0-beta.2",
  "updatedAt": "2018-12-12T03:42:35.000Z",
  "devdoc": {
    "methods": {}
  },
  "userdoc": {
    "methods": {}
  }
}